:020000040800F2
:10000000000400204701000875010008770100087E
:100010007B0100087F010008830100080000000048
:100020000000000000000000000000008701000840
:1000300089010008000000008B0100088D01000804
:1000400067010008670100086701000867010008F0
:1000500067010008670100086701000867010008E0
:1000600067010008670100086701000867010008D0
:1000700067010008670100086701000867010008C0
:1000800067010008670100086701000867010008B0
:1000900067010008670100086701000867010008A0
:1000A0006701000867010008670100086701000890
:1000B0006701000867010008670100086701000880
:1000C0006701000867010008670100086701000870
:1000D0006701000867010008670100086701000860
:1000E0006701000867010008670100086701000850
:1000F0006701000867010008670100086701000840
:10010000670100086701000867010008670100082F
:10011000670100086701000867010008670100081F
:10012000670100086701000867010008670100080F
:10013000DFF80CD002F098F8004800475D03000893
:10014000C8060020704708488047084981F308889E
:1001500007480047FEE7FEE7FEE7FEE7FEE7FEE7AB
:10016000FEE7FEE7FEE7FEE745010008C8060020BF
:1001700031010008704700BFFEE700BFFEE700BF87
:10018000FEE700BFFEE7704770477047704700000A
:1001900000B587B0012141F2040001F0EBFAE02044
:1001A000ADF8180001208DF81A0018208DF81B00FA
:1001B00006A9BF4801F042F81020ADF81800012050
:1001C0008DF81A0010208DF81B0006A9B84801F020
:1001D00035F81021B64801F0DEF80020ADF8040033
:1001E0004FF48270ADF806000020ADF80800ADF8BD
:1001F0000A00ADF80C004FF40070ADF80E001020AE
:10020000ADF810000020ADF812000720ADF8140082
:1002100001A9A84801F03EFB0121A64801F0D7FB47
:1002200007B000BDF8B500F05AFFA34908600846C2
:10023000006801F037FE06460022A04B01F08CFD5D
:10024000044601F042FE9E4908609B48006801F0A8
:1002500010FE4FF47A7190FBF1F201FB1200642161
:1002600090FBF1F03030974908719348006801F035
:1002700000FE642190FBF1F201FB12000A2190FBC9
:10028000F1F030308F4948712E2088718A4800681B
:1002900001F0EFFD0A2190FBF1F201FB120030307A
:1002A0008849C8718648006801F0FCFD0446224672
:1002B0000B4685A1864802F01BF801201023844AD2
:1002C00030210090482000F091FB012010230022F3
:1002D00030210090104600F0FFFB01201023024661
:1002E00030210090184600F0F7FB01201023022275
:1002F00030210090202000F0EFFB0120102303228A
:1003000030210090084600F0E7FB012010233A223C
:1003100030210090402000F0CEFA0120102304226A
:1003200030210090702000F0D7FBF8BD10B500BF61
:100330000221604801F0CFFB0028F9D0FF215D4881
:1003400001F076FB00BF01215A4801F0C4FB0028F0
:10035000F9D0584801F06EFBC0B210BD1CB501F0D9
:100360005FFCFFF715FF00F0B2FE00F001FD00207A
:1003700000F037F9002000F042F901201023032299
:1003800019460090302000F0A7FB90E000F069F9DA
:100390001020474914310860FFF7C8FF05462C4676
:1003A0002402FFF7C3FF05461020414910310860C1
:1003B0002C4304F0040966003609304601F04CFD78
:1003C00007460022434B01F055FCCDE9000101F046
:1003D0007CFD8246002C45D0B9F1000F5CD150461F
:1003E00001F060FD07463A460B4637A1384801F058
:1003F0007FFF01201023364A19460090482000F064
:10040000F5FA01201023002219460090104600F052
:1004100063FB01201023024619460090184600F0A5
:100420005BFB01201023022219460090202000F0DF
:1004300053FB01201023032219460090302000F0C6
:100440004BFB012010233A2219460090402000F077
:1004500032FA01201023042219460090702000F087
:100460003BFB19E000F02FF901201023052219466B
:100470000090002000F030FB0120102306221946D6
:100480000090184600F028FB01201023072219468F
:100490000090202000F020FB002400E0641C0E48A7
:1004A0008442FBD3FFF7BEFE322000F018FD6DE75B
:1004B00000080140003001400000002000002440FE
:1004C000040000202D00002025342E32660000009C
:1004D0001C0000200000D03FFFFF2F00032000BFC2
:1004E000011EA0F10102D0B2FAD1704710B58021EF
:1004F000F84800F052FF4021F64800F04CFFFFF7AB
:10050000EDFF8021F34800F046FF10BD10B58021BB
:10051000F04800F040FFFFF7E1FF4021ED4800F018
:100520003AFFFFF7DBFF4021EA4800F036FFFFF714
:10053000D5FF10BD70B5044600251BE004F0800017
:1005400020B18021E34800F026FF03E08021E1484C
:1005500000F023FFFFF7C2FF4021DE4800F01BFF41
:10056000FFF7BCFF4021DB4800F017FF6006040ED8
:10057000681CC5B2082DE1DB70BD10B58021D548DF
:1005800000F009FF4021D34800F005FFFFF7A6FF68
:100590008021D04800F001FFFFF7A0FF4021CD48A7
:1005A00000F0FBFEFFF79AFF10BD70B505460C4644
:1005B000FFF7E3FF7820FFF7BDFFFFF7A7FF1CB1B0
:1005C0004020FFF7B7FF02E00020FFF7B3FFFFF77F
:1005D0009DFF2846FFF7AEFFFFF798FFFFF786FF66
:1005E00070BD10B504461CB90021A620FFF7DDFF41
:1005F000012C03D10021A720FFF7D7FF10BD10B5B4
:1006000004463CB90021C820FFF7CFFF0021A120FC
:10061000FFF7CBFF012C07D10021C020FFF7C5FF5A
:100620000021A020FFF7C1FF10BD10B500218D20D3
:10063000FFF7BBFF00211420FFF7B7FF0021AF2019
:10064000FFF7B3FF10BD10B500218D20FFF7ADFF00
:1006500000211020FFF7A9FF0021AE20FFF7A5FF22
:1006600010BD70B500242BE004F1B001C8B2002128
:10067000FFF79BFF00210846FFF797FF002110209E
:10068000FFF793FFFFF779FF7820FFF753FFFFF79E
:100690003DFF4020FFF74EFFFFF738FF002509E040
:1006A0008D4901EBC501085DFFF744FFFFF72EFF01
:1006B000681CC5B2802DF3DBFFF718FF601CC4B2C5
:1006C000082CD1DB70BD70B500240CE0002506E0DD
:1006D0000020814901EBC5010855681CC5B2802D79
:1006E000F6DB601CC4B2082CF0DBFFF7BAFF70BD6C
:1006F000F0B514460B46CF1701EB5777C7F3C70287
:10070000CF1701EB5777FF10A1EBC707FEB201230C
:10071000B340DDB24CB1704B03EBC0039B5C2B4389
:100720006D4F07EBC007BB541AE06B4B03EBC003E4
:100730009B5CDB43684F07EBC007BB54664B03EB86
:10074000C0039B5C2B43644F07EBC007BB54624B59
:1007500003EBC0039B5CDB435F4F07EBC007BB545D
:10076000F0BD2DE9FF4F84B081468A4600200290FB
:1007700083460698A0EB09040798A0EB0A06CDF87B
:100780000490CDF800A0002C01DD012705E00CB994
:10079000002702E04FF0FF376442002E02DD4FF0E9
:1007A000010806E016B94FF0000802E04FF0FF38EC
:1007B0006642B44201DD254600E035460020039044
:1007C0001EE0009AD1B2019AD0B2119AFFF790FFC1
:1007D000029820440290B3440298A84205DD029892
:1007E000401B0290019838440190AB4504DDABEB0F
:1007F000050B0098404400900398401C80B2039081
:10080000691C03988842DCDB08B0BDE8F08F2DE955
:10081000F04306460F4690460025444643E03A1B07
:10082000D1B27219D0B20122FFF762FF3A1BD1B2E6
:10083000721BD0B20122FFF75BFF3A19D1B2721BD3
:10084000D0B20122FFF754FF3A19D1B27219D0B2D7
:100850000122FFF74DFF7A19D1B23219D0B201222D
:10086000FFF746FF7A1BD1B23219D0B20122FFF74F
:100870003FFF7A1BD1B2321BD0B20122FFF738FF03
:100880007A19D1B2321BD0B20122FFF731FF6D1CB1
:1008900005FB05F004FB040008FB1809B9F1000F83
:1008A00001DD641E6D1E6000604308FB08F1884294
:1008B000B5DABDE8F0832DE9FE4F0746884692463B
:1008C0001C460197CDF80080082C07D14FF006098F
:1008D00024E00000000C0140410000202046E31706
:1008E00004EB5373DB1021464FEAE47C04EB5C7CA1
:1008F0004FEAEC0CA4EBCC0CBCF1000F02D04FF093
:10090000010C01E04FF0000C6344224604EBD27C62
:100910004FEA6C0C03FB0CF303F0FF09AAF1200073
:10092000C6B200255EE0082C07D106EB4600FE4962
:1009300001EB400010F805B01DE00C2C07D106EBD0
:100940004600FA4901EB800010F805B013E0102CC6
:1009500005D1F74800EB061010F805B00BE0182C95
:1009600007D106EBC600F34901EB800010F805B093
:1009700001E0BDE8FE8F002002901CE00BF00100BA
:1009800028B1414638460C9AFFF7B2FE09E00C98B0
:1009900008B9012000E00020024641463846FFF732
:1009A000A7FE4FEA6B0B08F1010000F0FF08029868
:1009B000401CC0B2029002980828DFDB781CC7B246
:1009C000082C0BD004EBD4714A100199791A8A4291
:1009D00004D1019F00980830C0B20090DDF800807B
:1009E000681CC5B24D459EDB00BFC2E72DE9F8414A
:1009F00006460F4614461D46DDF81C8013E0CDF870
:100A0000008022782B4639463046FFF754FF082DE8
:100A100002D1B01DC6B205E0284605EBD07106EB49
:100A20006101CEB2641C2078202802DB20787E2869
:100A3000E5DDBDE8F88110B50246012000E0504335
:100A40000B1EA1F10104E1B2F9D110BD2DE9FF4F58
:100A500082B0064691461F46DDE90F4A4FF0000B73
:100A6000082C01D14FF0020B002530E0781B401E0E
:100A7000C1B20A20FFF7DFFFB9FBF0F00A21B0FB9B
:100A8000F1F201FB1208B8F1000F0ED104EBD471A2
:100A90000BEB610101FB0561C8B223463022CDE9B1
:100AA00000A40399FFF707FF0FE004EBD4710BEBF1
:100AB000610101FB0561C8B208F13001CAB22346E9
:100AC000CDE900A40399FFF7F6FE681CC5B2BD424C
:100AD000CCDB06B0BDE8F08F2DE9FC4F0746884619
:100AE00016461C46BB46CDF804802046E21704EBB0
:100AF0005272D2102146E31704EB5373DB10A4EBC0
:100B0000C3030BB1012300E000231A44624392B2F5
:100B10000092002555E0102C05D1874800EB4610C7
:100B200010F805A01BE0182C07D106EBC60083497E
:100B300001EBC00010F805A011E0202C05D1804881
:100B400000EBC61010F805A009E0402C05D17D4847
:100B500000EB462010F805A001E0BDE8FC8F4FF047
:100B600000091CE00AF0010028B1414638460B9A02
:100B7000FFF7BEFD09E00B9808B9012000E0002056
:100B8000024641463846FFF7B3FD4FEA6A0A08F1CC
:100B9000010000F0FF0809F1010000F0FF09B9F1C0
:100BA000080FDFDB781CC7B2A7EB0B00A04204D113
:100BB0005F4601980830C0B20190DDF80480681CDF
:100BC00085B200988542A6DB00BFC6E708B580461F
:100BD00089469246002600274BE04FB91023324643
:100BE00018218020CDF800A0FFF776FF701CC6B258
:100BF000464522D14FF0000B1AE0012410E00025F9
:100C00000AE0514800EBC400415D601E4E4A02EB11
:100C1000C0004155681CC5B2082DF2DB601CC4B28F
:100C2000902CECDBFFF71DFD0BF1010000F0FF0B3A
:100C30004FEA09105845E0DC0026781CC7B2102F97
:100C400000D10027012410E000250AE03E4800EB17
:100C5000C400415D601E3C4A02EBC0004155681C67
:100C6000C5B2082DF2DB601CC4B2902CECDBFFF7A0
:100C7000F8FCB2E72DE9FF4F05460E4617461C4625
:100C8000DDF838904FF0000A0095B3462046E21791
:100C900004EB5272D2102146E31704EB5373DB10BE
:100CA000A4EBC3030BB1012300E000231A44D4B228
:100CB0004FF0000858E0002003904EE00D9810F827
:100CC0000A0002900AF101001FFA80FA0020019048
:100CD0001DE0029800F0010028B14A46314628463E
:100CE000FFF706FD0AE0B9F1000F01D1012000E095
:100CF0000020024631462846FFF7FAFC02984010D1
:100D00000290701CC6B20198401CC0B201900198BC
:100D10000828DEDB681CC5B20098281AB84217D133
:100D2000009D0BF1080011E0F42B00081C2E0008B8
:100D30009032000880380008DC450008DC460008D6
:100D400024470008A44700084100002000F0FF0BE2
:100D50005E460398401CC0B203900398B842ADDBD6
:100D600008F1010000F0FF08A045A4DBBDE8FF8FFB
:100D700008B50121082000F0FDFCC020ADF80000FE
:100D800014208DF8030003208DF8020069464748BF
:100D900000F054FAC021454800F0FDFA0420ADF8F7
:100DA000000010208DF8030003208DF80200694632
:100DB0003E4800F043FA04213C4800F0ECFA0421DC
:100DC0003A4800F0EAFAC82000F089F804213748D0
:100DD00000F0E1FA0021AE20FFF7E7FB0021084612
:100DE000FFF7E3FB00211020FFF7DFFB002140208D
:100DF000FFF7DBFB00218120FFF7D7FB0021CF208D
:100E0000FFF7D3FB0021A120FFF7CFFB0021C82073
:100E1000FFF7CBFB0021A620FFF7C7FB0021A8208E
:100E2000FFF7C3FB00213F20FFF7BFFB0021D320CA
:100E3000FFF7BBFB00210846FFF7B7FB0021D520D9
:100E4000FFF7B3FB00218020FFF7AFFB0021D92083
:100E5000FFF7ABFB0021F120FFF7A7FB0021DA2011
:100E6000FFF7A3FB00211220FFF79FFB0021DB20EF
:100E7000FFF79BFB00213020FFF797FB002120208C
:100E8000FFF793FB00210220FFF78FFB00218D204D
:100E9000FFF78BFB00211420FFF787FBFFF713FC04
:100EA0000021AF20FFF781FB08BD0000000C0140CE
:100EB00000EBC001C9004FF0E022516100219161B7
:100EC0000521116100BF4FF0E021096901F4803173
:100ED0000029F8D004214FF0E0221161704700B5DD
:100EE000034603E04FF47A70FFF7E2FF181EA3F108
:100EF0000103F7D100BD10B5044603E04FF47A704A
:100F0000FFF7EDFF201EA4F10104F7D110BD000092
:100F100008B50121082000F02DFC4FF48050ADF8F9
:100F2000000010208DF8030003208DF802006946B0
:100F30008B4800F083F94FF48051894800F02BFA78
:100F400008BD08B54FF48050ADF8000048208DF87A
:100F500003006946824800F071F908BD08B54FF4F6
:100F60008050ADF8000010208DF8030003208DF8AC
:100F7000020069467A4800F061F908BD10B5FFF734
:100F8000EDFF4FF48051764800F007FA40F2EE2072
:100F9000FFF78EFF4FF48051714800F0FCF90F20ED
:100FA000FFF786FF10BD10B50024FFF7CAFF04E06D
:100FB000601CC4B20120FFF77BFF4FF480516848EA
:100FC00000F0CFF908B1642CF2DB642C01DB0120C6
:100FD00010BD002404E0601CC4B20120FFF768FFCC
:100FE0004FF480515E4800F0BCF908B9F02CF2DBF8
:100FF000F02C01DB0120EBE70020E9E710B5FFF75B
:10100000ADFF4FF48051564800F0C7F90A20FFF7B2
:101010004FFFFFF796FF4FF48051514800F0A1F9C0
:10102000012801D1012400E000242D20FFF740FF1A
:10103000204610BD70B50026002408E0FFF7DEFF53
:10104000054605FA04F03043C6B2601CC4B2082C51
:10105000F4DB304670BD70B50446FFF77FFF002516
:1010600026E004F00106641086B14FF480513C483C
:1010700000F093F90820FFF71BFF4FF48051384828
:1010800000F089F93A20FFF713FF0FE04FF4805189
:10109000334800F082F94620FFF70AFF4FF48051F1
:1010A0002F4800F078F90220FFF702FF681CC5B254
:1010B000082DD6DB70BD10B5FFF760FFFFF773FF9B
:1010C000CC20FFF7C8FF4420FFF7C5FF10BD10B5C7
:1010D000FFF71EFFFFF752FFFFF765FF10BD2DE979
:1010E000F05FFFF74BFFFFF75EFFCC20FFF7B3FF8A
:1010F0004420FFF7B0FFFFF741FFFFF754FFCC207C
:10110000FFF7A9FFBE20FFF7A6FFFFF793FF834677
:10111000FFF790FF82464FEA0A2004B244EA0B042C
:10112000002C0DDAE043401C00F085FE074600224B
:101130000C4B00F09FFD054600F0C7FE81460BE01A
:10114000204600F078FE07460022074B00F092FD93
:10115000054600F0BAFE81464846BDE8F09F000013
:10116000000C01400000B03F0000E43F10B5044611
:10117000C649601A8C422FD009DCC548204480B192
:10118000B0F5806F16D0B0F5006F4AD11BE0B0F516
:10119000806F2AD0B0F5006F30D0B0F5406F40D1ED
:1011A00035E00121042000F0FFFA0021042000F0C6
:1011B000FBFA37E00121082000F0F6FA00210820B0
:1011C00000F0F2FA2EE00121102000F0EDFA0021EB
:1011D000102000F0E9FA25E00121202000F0E4FAD7
:1011E0000021202000F0E0FA1CE00121402000F066
:1011F000DBFA0021402000F0D7FA13E00121802023
:1012000000F0D2FA0021802000F0CEFA0AE001219D
:10121000080200F0C9FA00214FF4807000F0C4FA0F
:1012200000E000BF00BF10BD10B50121084600F06E
:10123000BBFA0021012000F0B7FA10BD2DE9F04102
:10124000024600250026002000230024002791F8F4
:1012500003C00CF00F0591F803C00CF0100CBCF1AA
:10126000000F03D091F802C04CEA050591F800C0C8
:10127000BCF1000F31D0146800202BE04FF0010CBE
:101280000CFA00F3B1F800C00CEA03069E4220D12C
:1012900083004FF00F0C0CFA03F7BC4305FA03FC74
:1012A0004CEA040491F803C0BCF1280F06D14FF0BA
:1012B000010C0CFA00FCC2F814C00AE091F803C05B
:1012C000BCF1480F05D14FF0010C0CFA00FCC2F83C
:1012D00010C0401C0828D1D31460B1F800C0BCF184
:1012E000FF0F34DD546800202EE000F1080C4FF0B1
:1012F000010808FA0CF3B1F800C00CEA03069E429C
:1013000021D183004FF00F0C0CFA03F7BC4305FA10
:1013100003FC4CEA040491F803C0BCF1280F05D18A
:1013200000F1080C08FA0CF8C2F8148091F803C018
:10133000BCF1480F07D100F1080C4FF0010808FA82
:101340000CF8C2F81080401C0828CED35460BDE8C9
:10135000F0814FF6FF710180022181700421C1707C
:1013600070470246002093680B400BB1012000E05B
:10137000002070470146886880B27047024600200E
:10138000D3680B400BB1012000E0002070470146FC
:10139000C86880B2704701617047416170470AB107
:1013A000016100E041617047C16070474FF48032D5
:1013B0000A43826181618261826982697047024663
:1013C0000020344B18684FF68073184040EA021032
:1013D0000843304B186070472F49C8617047F0B51B
:1013E0000A4600230024002100252A4E7168C0F31C
:1013F000034583B200F44016B6F5401F08D121F032
:101400007061244E766826F07066224F7E6012E08E
:1014100000F48016B6F5801F06D1032606FA05F4FF
:10142000A14341F0706106E0460D360103FA06F66D
:10143000B14341F0706122B1460D360103FA06F660
:101440003143144E7160F0BD30B500228B071C0F84
:101450000F2303FA04F20F4B08338C1053F8243097
:1014600093430C4C08348D1044F8253023468C10DF
:1014700053F824308C07240F00FA04F42343054C5E
:1014800008348D1044F8253030BD000000140140B0
:1014900000F8FEBF0000014000002042DE48006866
:1014A00040F00100DC49086008464068DB4908401C
:1014B000D949486008460068D9490840D6490860BB
:1014C0000846006820F4802008600846406820F440
:1014D000FE004860002088607047CF49096821F409
:1014E0008031CD4A11601146096821F480211160D4
:1014F000B0F5803F03D0B0F5802F0ED106E0C6498D
:10150000096841F48031C44A116007E0C2490968A2
:1015100041F4A021C04A116000E000BF00BF704745
:1015200010B501460022002300204A11012A02D1F1
:10153000B94C236806E0022A02D1B74C236A01E0C5
:10154000B54C636A01F01F02012494401C400CB1A9
:10155000012000E0002010BD38B5002000900024DC
:10156000002500BF3120FFF7DBFF05460098401C37
:1015700000901DB90098B0F5A06FF3D13120FFF7AE
:10158000CFFF08B1012400E00024204638BD014609
:101590000020A14A106820F0F80040EAC100106065
:1015A0007047A04908607047024600209A4B58686F
:1015B00020F47C1042EA01031843974B58607047AF
:1015C00098490866704701460020934A506820F009
:1015D00003000843506070478F48406800F00C00DB
:1015E0007047014600208C4A506820F0F000084304
:1015F0005060704701460020874A506820F4E06040
:1016000008435060704701460020834A506820F428
:10161000605040EAC1005060704729B17E4A527A5A
:1016200002437D4B5A7204E07B4A527A82437A4BE2
:101630005A7270477B49D8310860704701460020D4
:10164000754A506820F440400843506070470021BC
:10165000714A20321170704A82F82010012802D09D
:1016600004280AD104E001216B4A2032117005E000
:101670000521694A2032117000E000BF00BF7047A9
:101680006949086070476449096A0143624A116206
:101690007047654944390860704730B50021002221
:1016A000002400235C4D6D6805F00C0121B1042974
:1016B00005D0082923D105E05C4D056022E05B4D93
:1016C00005601FE0544D6D6805F47012022505EBAE
:1016D0009242514D6D6805F480341CB9544D554308
:1016E00005600BE04C4D6D6805F400351DB1504DA3
:1016F0005543056002E04D4D5543056002E04B4DFA
:10170000056000BF00BF444D6D6805F0F001090998
:10171000484D6B5C0568DD4045603F4D6D6805F4E4
:10172000E061090A434D6B5C4568DD4085603A4DD8
:101730006D6805F46051C90A3E4D6B5C4568DD403B
:10174000C560354D6D6805F44041890B3A4D6B5CC1
:10175000C568B5FBF3F5056130BD29B12E4A526964
:1017600002432D4B5A6104E02B4A526982432A4BB3
:101770005A61704729B1284A92690243264B9A61FF
:1017800004E0254A92698243234B9A61704729B14C
:10179000214AD2690243204BDA6104E01E4AD26931
:1017A00082431D4BDA61704729B11B4AD26802435C
:1017B000194BDA6004E0184AD2688243164BDA60AB
:1017C000704729B1144A12690243134B1A6104E0AD
:1017D000114A12698243104B1A617047124940390D
:1017E000086070470F49C86470470B49C87170475B
:1017F0000948406A40F080700749486270470146D6
:101800000020054A92680A400AB1012000E0002049
:101810007047014988727047001002400000FFF8CD
:10182000FFFFF6FE000042428004424200127A00AE
:1018300000093D00080000201800002010B50446F3
:10184000BD48204478B1B0F5806F16D0B0F5784F20
:101850001DD101210803FFF7A7FF00214FF480509D
:10186000FFF7A2FF14E001218803FFF7AAFF002180
:101870004FF48040FFF7A5FF0AE00121C803FFF7FE
:10188000A0FF00214FF40040FFF79BFF00E000BFE6
:1018900000BF10BD10B50022028802F441520B882F
:1018A0004C8823438C882343CC8823430C892343CF
:1018B0004C8923438C892343CC8923431A430280D8
:1018C000838B4FF2FF74234083830B8A038210BD06
:1018D0002DE9F04786B005460C464FF00009022777
:1018E0004FF000084FF0010A0026A88B4FF240018C
:1018F0000840A88302202884B5F81C90208902287B
:1019000001D100BF31E0A08810B94FF0010A01E019
:101910004FF0020A01A8FFF7C0FEE088B0F5007F93
:101920000AD1019800EB8000400021890902B0FB38
:10193000F1F0401D86B20BE04FEA4A10218948437E
:10194000019901EB81014900B1FBF0F0401D86B225
:101950000A20B6FBF0F606F00108A6EB0800C0F37B
:101960004F074FF6FF7000EA0828022F01DBFF2F18
:1019700002DD02274FF0000847EA0800E18808432B
:101980002884208840F4006061880843A1880843C7
:101990006189084340EA0909A5F81C9006B0BDE832
:1019A000F0870021018041808180C18001814181D7
:1019B0008181C1810721018270470021018041801E
:1019C0008180C1800221018100214181704721B1C4
:1019D000028842F04002028004E002884FF6BF73A2
:1019E0001A400280704721B1828B42F48062828368
:1019F00004E0828B4FF6FF331A408283704730B584
:101A0000002400230C110125A540ABB21AB1858832
:101A10001D43858002E085889D43858030BD1AB1D5
:101A200083880B43838002E083888B4383807047E5
:101A3000818170470146888970474FF6FF62914265
:101A400004D0028842F48072028004E002884FF6DB
:101A5000FF631A400280704721B1828842F004027D
:101A6000828004E082884FF6FB731A4082807047C0
:101A700002884FF2FF731A40028002880A430280F4
:101A80007047018841F480510180704721B102887C
:101A900042F40052028004E002884DF6FF731A40BF
:101AA0000280704702460020012901D0108B00E01F
:101AB000908A70470146088A7047B1F5804F04D17B
:101AC000028842F48042028004E002884BF6FF73F1
:101AD0001A40028070470246002013890B400BB168
:101AE000012000E000207047CA4302817047F0B532
:101AF0000246002000240023002501F00F070126E4
:101B0000BE40B4B20B1101269E40B3B2968806EADD
:101B100003051689264016B10DB1012000E0002012
:101B2000F0BD10B5002201F00F040123A3409AB2CA
:101B3000D343038110BD000000C8FFBF0CB50020D7
:101B4000019000904748006840F4803045490860A3
:101B500000BF4448006800F4003000900198401C29
:101B60000190009818B90198B0F5A06FF1D13D48E7
:101B7000006800F4003010B10120009001E0002066
:101B800000900098012844D13748006840F01000C8
:101B9000354908600846006820F0030008600846E0
:101BA000006840F0020008602E4840682D494860F7
:101BB0000846406848600846406840F480604860D5
:101BC0000846406820F47C1048600846406840F4AD
:101BD000E81048600846006840F08070086000BF68
:101BE0002048006800F000700028F9D01D484068C7
:101BF00020F003001B4948600846406840F002009E
:101C0000486000BF1748406800F00C000828F9D170
:101C100001E000BFFEE70CBD10B5FFF78FFF10BD60
:101C200010B51048006840F001000E4908600846F1
:101C300040680E4908400B494860084600680C4956
:101C40000840084908600846006820F480200860C1
:101C50000846406820F4FE00486000208860FFF7D6
:101C6000DBFF10BD00100240002002400000FFF822
:101C7000FFFFF6FE2DE9FE4F81EA030404F0004465
:101C800021F0004100944FF0000B23F0004350EA94
:101C900001045ED052EA03045BD0C3F30A54C1F3DB
:101CA0000A552C44A4F2F3340194A0FB0254C1F36E
:101CB000130141F48011C3F3130343F4801301FBB8
:101CC000024400FB034E840A970A44EA815447EA1F
:101CD0008357A4FB076802958D0A05FB07854FEA29
:101CE000932C04FB0C542705029D4FEA065847EA43
:101CF0001637B5EB08056EEB070C870E920E47EA18
:101D0000811742EA8312A7FB0201B6EB0B0164EBD9
:101D100000042B0D43EA0C335E1844EB1C50DA46EA
:101D20005146E7FB0201C5F313044FEA0B3343EAC4
:101D300014534FEA0432019C43EA0603A4F10C0455
:101D40000294009CCDE900B400F068F903B0BDE84E
:101D5000F08F00200146F9E72DE9F04D81EA0304F8
:101D600004F0004B21F0004514464FF0000A23F028
:101D7000004150EA050220D054EA01021DD0C5F30B
:101D80000A570246C5F31303C1F31300C1F30A5601
:101D900040F4801543F48013A7EB0608101BD646C9
:101DA00008F2FD3873EB050002D308F1010801E0E9
:101DB00092185B41B8F1000F03DA00200146BDE83C
:101DC000F08D00204FF48011064684460EE0171B6C
:101DD00073EB050705D3121B63EB050306434CEABF
:101DE000010C49084FEA300092185B4150EA0107A4
:101DF000EDD152EA030012D082EA040083EA050121
:101E0000084305D0101BAB4106D20122002306E097
:101E100000224FF0004302E06FF0010253101AEB72
:101E200006004CEB085110EB0A0041EB0B01BDE83A
:101E3000F04D00F0E4B80EB5C10F80EAE070084440
:101E4000CA07002140F233438DE80E000A460B46D4
:101E500000F0E4F803B000BD0EB540F2334102914A
:101E60000021CDE900110A460B4600F0D7F803B077
:101E700000BD00F0004220F00040C10DC0F316008C
:101E800040F400007F2901DA00207047962903DC26
:101E9000C1F19601C84001E096398840002AF4D08B
:101EA0004042704700F0004230F000400AD0C10DBF
:101EB00001F56071C0F3160042EA0151C208400703
:101EC0001143704700200146704701F0004330B4D1
:101ED00021F0004150EA010206D00A0DA2F560721D
:101EE000C1F31301002A02DC30BC00207047440F0C
:101EF00044EAC104C100E01830BC00EBC25000F05D
:101F000047B830B50B46014600202022012409E0E5
:101F100021FA02F59D4205D303FA02F5491B04FAA2
:101F200002F52844151EA2F10102F1DC30BD2DE9B5
:101F3000F05F0546002092469B468846064681464D
:101F400040241BE0284641464746224600F0ADF9B2
:101F500053465A46C01A914110D31146184622469C
:101F600000F094F92D1A67EB01084F462246012034
:101F7000002100F08BF917EB00094E41201EA4F15F
:101F80000104DFDC484631462A464346BDE8F09F5F
:101F90000029A8BF7047401C490008BF20F001007D
:101FA000704710B4B0FA80FC00FA0CF050EA01045B
:101FB00004BF10BC704749B1CCF1200421FA04F4ED
:101FC00011FA0CF118BF012121430843A3EB0C01C6
:101FD000CB1D4FEA00614FEA102042BF002010BC29
:101FE000704700EBC35010440029A4BF10BC7047D9
:101FF000401C490008BF20F0010010BC704710B51C
:10200000141E73F1000408DA401C41F1000192181B
:102010005B411A4301D120F0010010BD2DE9F04DC4
:1020200092469B4611B1B1FA81F202E0B0FA80F219
:102030002032904600F02AF904460F4640EA0A0092
:1020400041EA0B0153465A46084313D0114653EA5E
:10205000010019D0C8F14002504600F026F90546AB
:102060000E4650465946424600F010F9084305D046
:10207000012004E020463946BDE8F08D00200543EC
:1020800046EAE0762C4337430A986305E40AA0EB5E
:1020900008000022FD0A44EA47540A3002D5002015
:1020A0000146E9E7010510196941DDE90845001914
:1020B0006941BDE8F04DA2E72DE9FE4F804681EA77
:1020C0000300C00F0C46009021F0004123F00045B2
:1020D000B8EB0200A94105D24046214690461C4675
:1020E0000B46024623F00040104347D0270DC7F3AC
:1020F0000A00C3F30A510290401A019040286BDA9B
:10210000C3F3130040F4801B0098924620B10023D3
:10211000D2EB030A63EB0B0B01985946C0F1400266
:10212000504600F0B3F806460D4650465946019A0F
:1021300000F0CBF810EB08006141002487EA11524F
:1021400084EAE7731A4340D0009A62B3019A012AE5
:102150004FEA075215DC001B61EB02014FF0004211
:1021600002EA0752CDE90042001C41F580113246D7
:102170002B46FFF753FF03B0BDE8F08F40462146E2
:10218000F9E7001B61EB0201001C41F58013001808
:102190005B412018A2F5001747EB030140EAD57018
:1021A000B6196D4111E06D084FEA360645EAC07573
:1021B0004FEA0752001B61EB0201001C41F5801140
:1021C00049084FEA30000019514132462B4603B00E
:1021D000BDE8F04FFFF713BF009801224000002335
:1021E000D0EB020263EBE073009821464FEAE07403
:1021F000B8EB000061EB0401E9E783F000435BE723
:1022000081F0004158E7C1F30A52C1F3130140F2D3
:10221000FF3341F480119A4202DA002001467047F0
:1022200040F233439A42A2F2334202DC524200F0BF
:102230003CB800F02BB8000030B5041E71F100046A
:1022400004DB4FF00044404264EB0101141E73F1C3
:10225000000405DB1C464FF00043524263EB0403CD
:10226000994208BF904230BD064C074D06E0E06839
:1022700040F0010394E8070098471034AC42F6D3CD
:10228000FDF75AFFA4490008C4490008202A04DBCE
:10229000203A00FA02F1002070479140C2F1200379
:1022A00020FA03F3194390407047202A04DB203AB8
:1022B00021FA02F00021704721FA02F3D040C2F166
:1022C00020029140084319467047202A06DBCB17AD
:1022D000203A41FA02F043EAE07306E041FA02F3E1
:1022E000D040C2F1200291400843194670470000D7
:1022F0000FB4084B10B504A902AA039800F0DEF849
:10230000044602A9002000F070FC204610BC5DF8D5
:1023100014FB0000EB2B000802E008C8121F08C1E4
:10232000002AFAD170477047002001E001C1121F56
:10233000002AFBD1704700002DE9FF5F82B0002129
:10234000DDE90430020DDDF840B0034318D044F657
:102350001050A2F2FF3242431514119801281FD0E9
:10236000A5EB0B00401C5FEA000A4FF000064E4F41
:10237000DFF83891B046504615D5CAF1000413E095
:10238000119801244AA3012801D16FEA0B01029898
:10239000119AC0E90031C0E9024206B0BDE8F09FE1
:1023A000CBF10000DFE704460021404A491842EB28
:1023B0000450CDE9001012E0E00707D032463B465A
:1023C00040464946FFF756FC8046894632463B4622
:1023D00010461946FFF74EFC06460F466410002CC7
:1023E000EAD1DDE90401DDE90023BAF1000F06DAE4
:1023F000FFF740FC42464B46FFF73CFC05E0FFF789
:10240000ABFC42464B46FFF7A7FC04460E460022B3
:10241000284BFFF711FF03D84FF0FF30014607E0CC
:102420000022254B20463146FFF746FEFFF7EBFE24
:10243000102409E0002C0ADB0A220023FFF777FDB5
:10244000039B30321A55641E50EA0102F2D1641C1B
:10245000039AC4F111031444119A012A03D00122F2
:1024600008430DD10AE0084304D000204FF0110BBF
:10247000119072E7A3EB0B056D1E0DE05B4504DDCB
:102480004FF0000205F1010504E003DA4FF000020D
:10249000A5F10105002AECD002981199C0E902319A
:1024A000C0E9004579E70000000014400000F03F5B
:1024B000300000000000F0430000E03F2DE9FF4F36
:1024C00095B09B468946064600250FE2252877D120
:1024D00000242746F84A0121059400E0044316F839
:1024E000013F203B01FA03F01042F7D130782A284F
:1024F00011D06FF02F033078A0F13002092A16D8DE
:10250000059A44F0020402EB820203EB42021044FB
:10251000761C0590EFE759F8042B0592002A03DAA0
:10252000504244F40054059044F00204761C307884
:102530002E2816D116F8010F44F004042A280DD0D5
:102540006FF02F023078A0F13003092B09D807EB88
:10255000870302EB4303C718761CF3E759F8047BA3
:10256000761C30786C280FD006DC4C2817D06828F1
:102570000DD06A2814D104E0742810D07A280FD125
:102580000DE044F400140AE044F4801401E044F443
:1025900040147278824202D104F58014761C761CB5
:1025A000307866280BD013DC582877D009DC002857
:1025B00075D04528F6D04628F4D047281AD19DE199
:1025C00018E0632835D0642879D0652812D195E1C8
:1025D000702873D008DC6728F1D069286FD06E2886
:1025E0000DD06F2806D1B5E073282CD0752875D092
:1025F000782874D05A46179990476D1C75E1C4F33A
:102600000250022809D003280DD0D9F80010042860
:102610000DD00D6009F1040967E1D9F80010EA173F
:10262000C1E90052F6E7D9F800100D80F2E70D700D
:10263000F0E719F8041B8DF8001000208DF8010058
:10264000EA46012003E059F804AB4FF0FF30610780
:102650004FF0000102D40DE008F101018846B942B3
:102660000FDA8045F8DB1AF808100029F4D108E0E9
:1026700008F1010188468142FADB1AF808100029A6
:10268000F6D105985B46A0EB080721463846179A15
:1026900000F094FA284400EB080507E04DE029E13A
:1026A0000DE01AF8010B5A4617999047B8F1010846
:1026B000F7D25B4621463846179A13E142E00A22D8
:1026C0000092C4F302524FF0000A022A08D059F8CF
:1026D00004CB032A4FEAEC710AD00DE029E02AE08E
:1026E00009F1070121F00702F2E802C1914609E071
:1026F0000FFA8CFC4FEAEC71042A03D14FFA8CFCE0
:102700004FEAEC71002907DA0A460021DCF1000CDF
:1027100061EB02012D2202E0220504D52B228DF867
:102720000420012203E0E20701D02022F7E79046CF
:1027300059E00A2102E010220DE010214FF0000ABA
:1027400000910BE010224FF0000A44F00404082727
:10275000009203E008224FF0000A0092C4F30252F4
:10276000022A05D059F804CB0021032A08D009E039
:1027700009F1070121F00702F2E802C1914605E0E4
:102780001FFA8CFC042A01D10CF0FF0C4FF000085A
:10279000220728D5702806D0009B83F0100353EA47
:1027A0000A0305D00EE040228DF80420012208E043
:1027B0005CEA010206D030228DF804208DF8050075
:1027C00002229046009B83F0080353EA0A030AD1D1
:1027D0005CEA010201D1620705D530228DF80420A0
:1027E0004FF001087F1E582804D034A003900EA893
:1027F00002900DE036A0F9E753466046009AFFF7D5
:1028000096FB84460398825C0298401E02900270F8
:102810005CEA0100F0D1029806A9081A00F1200A2A
:10282000600702D524F4803400E00127574502DD1B
:10283000A7EB0A0000E0002000EB0A0100900598D9
:102840004144401A0590E00306D45B462146179A9E
:10285000059800F0B3F90544002706E001A85A46A0
:10286000C05D179990476D1C7F1C4745F6DBE00360
:102870000CD55B462146179A059800F09FF9054450
:1028800004E030205A46179990476D1C0099481E65
:1028900000900029F5DC08E0029802995A46007879
:1028A000491C0291179990476D1CBAF10001AAF1D9
:1028B000010AF1DC65E10000092801003031323302
:1028C000343536373839616263646566000000006C
:1028D0003031323334353637383941424344454656
:1028E0000000000000F058F90544761C30780028FC
:1028F0007FF4ECAD19B02846BDE8F08F620700D434
:10290000062709F1070222F0070CFCE80223E14642
:1029100003F000485FEA080C02D00FF2702C0DE0C3
:102920005FEA045C02D50FF2682C07E05FEAC47C22
:1029300002D00FF2602C01E0AFF2700C4FF0FF38C4
:1029400023F00043CDF850C065280CD006DC4528A4
:1029500009D046281DD047283DD13DE0662818D033
:1029600067287ED138E00021112F01DB112000E023
:10297000781CCDE9000106A90EA8FFF7DDFCDDE912
:102980000F010E9A03910021009207F1010A0491B0
:102990004DE04FF000400097CDE9011006A90EA8C8
:1029A000FFF7CAFCDDE90F0203920E9B119900228A
:1029B000DDF80CA00093049211B9791C00EB010A18
:1029C000B7EB0A0004D4C0F1FF3007F1010A04900C
:1029D000AAEB0700019044E0012F00DA0127002153
:1029E000112F01DD112000E03846CDE9000106A9D4
:1029F0000EA8FFF7A1FCDDE90F010E9A039100215B
:102A000004910092BA4621070CD40399514500DA8B
:102A10008A46BAF1010F05DD009AAAF10101515C65
:102A2000302908D0B84202DA10F1040F06DA012189
:102A3000CDE9011015E0AAF10101E9E7002805DC64
:102A4000049901440491AAEB000102E0411C5145A4
:102A500000DD8A460499401A401C01904FF0004066
:102A60000290200704D40198504501DBCDF8048082
:102A700000208DF84F0002980DF14F07B0F1004F84
:102A800025D02B200E9002984FF0020800280CDA77
:102A9000404202902D200E9007E00A210298FFF795
:102AA00030FA3031029007F8011DB8F10001A8F1A9
:102AB0000108F2DC02980028EFD1791E0E98087008
:102AC000307800F0200040F0450007F8020D12A811
:102AD000C01B00F107081498007800B1012000EB3A
:102AE0000A01019801EBE07105984144401A401E2B
:102AF0000590E00306D45B462146179A059800F03E
:102B00005DF805441498007818B15A461799904713
:102B10006D1CE00324D55B462146179A059800F00A
:102B20004DF805441CE00498002807DBDDE90301AB
:102B3000884203DD0098405C179901E01799302026
:102B40005A469047049805F10105401C04900198ED
:102B5000401E019004D12E205A46179990476D1CB3
:102B6000BAF10001AAF1010ADDDC05E017F8010B5A
:102B70005A46179990476D1CB8F10001A8F1010859
:102B8000F4DC5B462146179A0598ABE62D00000061
:102B90002B000000200000002DE9F0410446002534
:102BA0001E461746880404D405E039462020B04765
:102BB0006D1C641EF9D52846BDE8F0812DE9F04171
:102BC000044600251E469046C80301D5302700E084
:102BD0002027880404D505E041463846B0476D1CDF
:102BE000641EF9D52846BDE8F0810A68531C0B60C5
:102BF000107070470000000000000000002F00006F
:102C000000000700070000147F147F1400242A7FAF
:102C10002A1200626408132300364955225000002E
:102C20000503000000001C224100000041221C009E
:102C30000014083E08140008083E0808000000A020
:102C4000600000080808080800006060000000201C
:102C500010080402003E5149453E0000427F4000FA
:102C6000004261514946002141454B310018141280
:102C70007F10002745454539003C4A49493000014D
:102C80007109050300364949493600064949291E9C
:102C900000003636000000005636000000081422FE
:102CA00041000014141414140000412214080002FE
:102CB0000151090600324959513E007C1211127C23
:102CC000007F49494936003E41414122007F414150
:102CD000221C007F49494941007F09090901003E42
:102CE0004149497A007F0808087F0000417F410080
:102CF000002040413F01007F08142241007F4040F6
:102D00004040007F020C027F007F0408107F003EDD
:102D10004141413E007F09090906003E4151215EC3
:102D2000007F091929460046494949310001017FC0
:102D30000101003F4040403F001F2040201F003F56
:102D40004038403F00631408146300070870080708
:102D500000615149454300007F41410000552A551B
:102D60002A55000041417F00000402010204004096
:102D700040404040000001020400002054545478B8
:102D8000007F4844443800384444442000384444D8
:102D9000487F00385454541800087E090102001876
:102DA000A4A4A47C007F080404780000447D4000B3
:102DB000004080847D00007F102844000000417F97
:102DC0004000007C04180478007C08040478003873
:102DD0004444443800FC242424180018242418FCFB
:102DE000007C0804040800485454542000043F4464
:102DF0004020003C4040207C001C2040201C003C27
:102E00004030403C004428102844001CA0A0A07C76
:102E1000004464544C4414141414141400000000AE
:102E200000000000000000000000FC0000000000A6
:102E300002000000000C020C020000000000000074
:102E400090D0BCD0BC900003000300001824FE44C6
:102E50008C000302070201001824D8B04C80000344
:102E600000010201C038E438E00001020201020260
:102E7000080600000000000000000000000000F84C
:102E80000402000000010204000204F80000000433
:102E9000020100009060F860900000000100000056
:102EA0002020FC20200000000100000000000000A5
:102EB0000000080600000000202020202000000064
:102EC0000000000000000000000000020000000000
:102ED0000080601C0200040300000000F8040404E9
:102EE000F8000102020201000008FC0000000002DC
:102EF00003020000188444241800030202020200A6
:102F000008042424D80001020202010040B088FC19
:102F100080000000000302003C242424C4000102BD
:102F200002020100F824242CC00001020202010068
:102F30000C04E41C0400000003000000D824242436
:102F4000D80001020202010038444444F8000003A2
:102F5000020201000000100000000000020000005A
:102F60000000200000000000060000000020508843
:102F70000402000000000102909090909000000078
:102F80000000000000020488502000020100000040
:102F90001804C4241800000002000000F804E4949F
:102FA000F80001020202020000E09CF0800002032F
:102FB0000000030204FC2424D800020302020100E2
:102FC000F80404040C0001020202010004FC0404E1
:102FD000F80002030202010004FC24740C00020346
:102FE0000202030004FC24740C000203020000002F
:102FF000F0080444CC4000010202010004FC20203F
:10300000FC040203000003020404FC0404000202A6
:1030100003020200000404FC04040604040300008C
:1030200004FC24D00C0402030200030204FC04008C
:103030000000020302020203FC3CC03CFC0003004F
:103040000300030004FC30C4FC040203020003007C
:10305000F8040404F80001020202010004FC242424
:103060001800020302000000F8848404F800010242
:103070000207050004FC2464980002030200030216
:10308000182424448C000302020201000C04FC04F6
:103090000C0000020302000004FC0000FC0400011C
:1030A00002020100047C80E01C0400000300000018
:1030B0001CE03CE01C00000300030000049C609C3A
:1030C0000400020300030200041CE01C04000002D0
:1030D000030200000C84641C0400020302020300CB
:1030E0000000FE020200000007040400000E30C0D1
:1030F0000000000000010200000202FE00000004C7
:1031000004070000000402040000000000000000AA
:10311000000000000000080808080808000002007D
:1031200000000000000000000040A0A0C00000015E
:103130000202030204FC2020C0000003020201007E
:1031400000C02020600000010202020000C0202414
:10315000FC0000010202030200C0A0A0C0000001A8
:10316000020202000020F8242404000203020200EC
:103170000040A0A0602000070A0A0A0404FC2020E6
:10318000C0000203020003020020E400000000026D
:1031900003020000000020E4000008080807000007
:1031A00004FC80E020200203020003020404FC006F
:1031B0000000020203020200E020E020C000030041
:1031C0000300030020E02020C000020302000302ED
:1031D00000C02020C00000010202010020E02020E9
:1031E000C000080F0A02010000C02020E00000011A
:1031F000020A0F0820E04020200002030200000025
:103200000060A0A020000002020203000020F820BD
:10321000000000000102020020E00020E0000001A8
:103220000202030220E02080602000000301000071
:103230006080E08060000003000300002060806088
:10324000200002030003020020E020806020080824
:10325000070100000020A06020000002030202001D
:10326000000020DE0200000000070400000000FF54
:1032700000000000000F00000002DE20000000043B
:103280000700000002010204040200000000000028
:10329000000000000000000000000000000000002E
:1032A000000000F8000000000000003330000000C3
:1032B00000100C06100C06000000000000000000CA
:1032C00040C07840C0784000043F04043F0404003C
:1032D000007088FC08300000001820FF211E00004C
:1032E000F008F000E018000000211C031E211E0061
:1032F00000F00888700000001E21232419272110E7
:1033000010160E0000000000000000000000000089
:10331000000000E018040200000000071820400030
:1033200000020418E0000000004020180700000020
:10333000404080F0804040000202010F0102020084
:10334000000000F0000000000101011F0101010068
:10335000000000000000000080B0700000000000CD
:103360000000000000000000000101010101010156
:1033700000000000000000000030300000000000ED
:1033800000000000806018040060180601000000C2
:1033900000E010080810E000000F102020100F00BF
:1033A000001010F8000000000020203F2020000046
:1033B000007008080888700000302824222130009E
:1033C00000300888884830000018202020110E00A6
:1033D0000000C02010F8000000070424243F24004F
:1033E00000F80888880808000019212020110E0024
:1033F00000E0108888180000000F112020110E0036
:1034000000380808C83808000000003F000000002D
:103410000070880808887000001C222121221C00EE
:1034200000E010080810E0000000312222110F0017
:10343000000000C0C00000000000003030000000AC
:10344000000000800000000000008060000000001C
:103450000000804020100800000102040810200035
:103460004040404040404000040404040404040080
:103470000008102040800000002010080402010015
:10348000007048080808F000000000303601000015
:10349000C030C828E810E0000718272423140B00C8
:1034A0000000C038E0000000203C23020227382042
:1034B00008F8888888700000203F202020110E0026
:1034C000C03008080808380007182020201008001D
:1034D00008F808080810E000203F202020100F0006
:1034E00008F88888E8081000203F202023201800D2
:1034F00008F88888E8081000203F2000030000003A
:10350000C03008080838000007182020221E0200DA
:1035100008F808000008F808203F210101213F2099
:10352000000808F8080800000020203F20200000C4
:1035300000000808F8080800C08080807F000000B4
:1035400008F888C028180800203F200126382000ED
:1035500008F8080000000000203F20202020300054
:1035600008F8F800F8F80800203F003F003F20006E
:1035700008F830C00008F808203F200007183F0076
:10358000E01008080810E0000F10202020100F00A5
:1035900008F808080808F000203F21010101000098
:1035A000E01008080810E0000F18242438504F00DD
:1035B00008F8888888887000203F2000030C30209D
:1035C00000708808080838000038202121221C00DB
:1035D000180808F8080818000000203F2000000024
:1035E00008F808000008F808001F202020201F000D
:1035F0000878880000C83808000007380E0100006D
:10360000F80800F80008F800033C0700073C030036
:10361000081868808068180820302C03032C30209C
:103620000838C800C83808000000203F200000000B
:1036300010080808C8380800203826212020180063
:10364000000000FE020202000000007F4040400037
:10365000000C30C000000000000000010638C0006F
:1036600000020202FE000000004040407F00000017
:10367000000004020202040000000000000000003C
:10368000000000000000000080808080808080803A
:103690000002020400000000000000000000000022
:1036A00000008080808000000019242222223F2018
:1036B00008F8008080000000003F112020110E005B
:1036C0000000008080800000000E112020201100EA
:1036D000000000808088F800000E112020103F209C
:1036E0000000808080800000001F22222222130020
:1036F000008080F0888888180020203F202000006B
:103700000000808080808000006B9494949360001F
:1037100008F8008080800000203F210000203F202A
:1037200000809898000000000020203F202000002A
:10373000000000809898000000C08080807F00001A
:1037400008F8000080808000203F24022D302000F7
:10375000000808F8000000000020203F20200000A2
:103760008080808080808000203F20003F20003FBC
:103770008080008080800000203F210000203F20CA
:103780000000808080800000001F202020201F007B
:10379000808000808000000080FFA12020110E00AA
:1037A0000000008080808000000E112020A0FF809B
:1037B000808080008080800020203F212000010048
:1037C000000080808080800000332424242419009D
:1037D000008080E0808000000000001F20200000AA
:1037E0008080000000808000001F202020103F20EB
:1037F000808080000080808000010E30080601007B
:1038000080800080008080800F300C030C300F001F
:1038100000808000808080000020312E0E3120004A
:10382000808080000080808080818E70180601007A
:1038300000808080808080000021302C2221300098
:1038400000000000807C020200000000003F4040B9
:1038500000000000FF00000000000000FF0000006A
:103860000002027C800000000040403F0000000099
:103870000006010102020404000000000000000034
:103880000000000000000000000000000000000038
:103890000000000000000000000000000000000028
:1038A000000000000000000000F0F0F00000000048
:1038B0000000000000017F01000000000000000087
:1038C000001C1C1C0000000000008060301C8C608C
:1038D000301C0C0000000000000000000000000090
:1038E000000000000000000000000000000000E0F8
:1038F0000000000000E000000086E69F86868686C5
:10390000E69F860000011F01010101011F01010066
:10391000000080C06020F820E0C000000000030725
:103920000C18FF70E18100000000070F10107F10DD
:103930000F0700008060206080000000E020000091
:103940000F3020309F70DC371030C0000000100EA8
:1039500003000718101807000000C02020E0C00076
:103960000000000080E01F38E88703C43C0400002A
:10397000070F1810100B070D1010080000808C4C5A
:1039800038000000000000000000000000000000FF
:103990000000000000000000000000000000000027
:1039A00000000000000080E030080400000000007B
:1039B00000FEFF0100000000000000000000030FF7
:1039C0001820400000040830E080000000000000E3
:1039D0000000000001FFFE00000000000040201871
:1039E0000F03000000000000000000000000C00005
:1039F00000000000004266663C18FF183C66664204
:103A000000000000000003000000000000000000B3
:103A10000000800000000000001010101010FF10C7
:103A20001010101000000000000003000000000053
:103A30000000000000000000000000000000000086
:103A4000000000000000000000808C4C38000000E6
:103A50000000000000000000000000000000000066
:103A600000101010101010101010100000000000B6
:103A70000000000000000000000000000000000046
:103A80000000000000000000000000000000000036
:103A900000001C1C1C0000000000000000000000D2
:103AA00000000000E0380C000000000080701C03E3
:103AB000000000000060380E01000000000000005F
:103AC000000080C060202060C080000000FEFF0178
:103AD0000000000001FFFE000001070E1810101882
:103AE0000E0701000000808080C0E00000000000A0
:103AF0000000000000FFFF000000000000001010A8
:103B0000101F1F1010100000008040202020206097
:103B1000C080000000030300804020381F07000021
:103B2000001C1A1918181818181F00000080C0204F
:103B3000202060C080000000000303001010182F38
:103B4000E780000000070F10101010180F0700008A
:103B5000000000000000C0E0F000000000C0B088DD
:103B6000868180FFFF808000000000000010101F91
:103B70001F1010000000E060606060606060000086
:103B800000003F1008080818F0E0000000070B10C4
:103B90001010101C0F030000000080C040202020E7
:103BA000E0C0000000FCFF211008080818F0E00049
:103BB0000001070C18101010080F03000000C0E0EF
:103BC0006060606060E06000000003000000E018DA
:103BD0000700000000000000001F1F0000000000A0
:103BE0000080C0602020202060C080000087EF2C73
:103BF0001818303068CF830000070F08101010101D
:103C0000180F07000000C0C020202020C080000046
:103C1000001F3F604040402010FFFE0000000C1CD1
:103C2000101010080F03000000000000000000004A
:103C30000000000000000000000E0E0E000000005A
:103C400000000000001C1C1C000000000000000020
:103C5000000000000000000000000000000C0C004C
:103C600000000000000000000058380000000000C4
:103C7000000000000000008040201000000010281C
:103C8000448201000000000000000000000001026A
:103C90000408100000000000000000000000000008
:103CA00000848484848484848484840000000000EC
:103CB0000000000000000000000010204080000014
:103CC00000000000000000000000018244281000F5
:103CD00000001008040201000000000000C02020C5
:103CE0001010101030E0C0000003030000F01008B6
:103CF0000C070300000000001C1C1C00000000005A
:103D0000000000C0406020202040C00000FCFF01F7
:103D1000F00E03C1FE03807F0001070E0811111091
:103D2000110904020000000080E0E0000000000033
:103D30000000807C4340477FF880000010181F106F
:103D400000000000131F1C1020E0E0202020206055
:103D5000C080000000FFFF10101010182FE7800037
:103D6000101F1F1010101010180F0700000080C047
:103D7000402020202060E00000FCFF010000000047
:103D8000000001000001070E1810101008040300C5
:103D900020E0E02020202040C080000000FFFF0045
:103DA0000000000001FFFE00101F1F101010180877
:103DB0000E07010020E0E02020202020206080006D
:103DC00000FFFF101010107C00000000101F1F10DB
:103DD000101010101018060020E0E02020202020F5
:103DE0006060800000FFFF101010107C00000100D8
:103DF000101F1F100000000000000000000080C025
:103E00006020202040E0000000FCFF010000404056
:103E1000C0C140400001070E181010100F0F000025
:103E200020E0E0200000000020E0E02000FFFF1084
:103E30001010101010FFFF00101F1F1000000000D6
:103E4000101F1F100000202020E0E0202020000094
:103E50000000000000FFFF00000000000000101044
:103E6000101F1F101010000000000000202020E094
:103E7000E020202000000000000000FFFF00000004
:103E80000060E0808080C07F3F00000020E0E020F4
:103E9000000020A06020200000FFFF30187CE3C05D
:103EA00000000000101F1F10000001131F1C18103D
:103EB00020E0E020000000000000000000FFFF0004
:103EC0000000000000000000101F1F101010101054
:103ED0001018060020E0E0E000000000E0E0E02034
:103EE00000FF013FFEC0E01E01FFFF00101F100099
:103EF000031F0300101F1F1020E0E0C0000000009F
:103F00000020E02000FF0003071C78E08000FF0095
:103F1000101F100000000000030F1F00000080C0F1
:103F200060202060C080000000FEFF010000000053
:103F300000FFFE000001070E181010180C0701000A
:103F400020E0E0202020202060C0800000FFFF2033
:103F500020202020301F0F00101F1F100000000025
:103F600000000000000080C060202060C0800000D1
:103F700000FEFF010000000000FFFE000001070E30
:103F80001111133C7C67210020E0E020202020203C
:103F900060C0800000FFFF101030F0D0080F070055
:103FA000101F1F10000000030F1C10100080C060C5
:103FB000202020204040E00000070F0C181830306F
:103FC00060E08100001F0C0810101010180F07008F
:103FD0008060202020E0E0202020608001000000A0
:103FE00000FFFF000000000100000000101F1F1074
:103FF0000000000020E0E020000000000020E020A1
:1040000000FFFF00000000000000FF0000070F1885
:1040100010101010100807002060E0E020000000E1
:1040200020E060200000077FF88000807C03000013
:1040300000000000071F1C070000000020E0E02037
:1040400000E0E0200020E0200007FFF8E01FFFFC78
:10405000E01F00000000031F0300011F0300000019
:10406000002060E0A0000020E060200000000003CD
:104070008F7CF8C6010000000010181E1300011705
:104080001F1810002060E0E02000000020E0602009
:10409000000001073EF8E0180700000000000010D3
:1040A000101F1F101000000000806020202020A0A2
:1040B000E0E0200000000000C0F03E0F0300000020
:1040C00000101C1F17101010101806000000000030
:1040D00000FC0404040404000000000000FF0000D1
:1040E0000000000000000000007F40404040400011
:1040F000000010E0000000000000000000000000D0
:10410000031C6080000000000000000000000003AD
:104110000C70800000000404040404FC0000000093
:1041200000000000000000FF000000000000404010
:104130004040407F0000000000000010080C040C0C
:104140000810000000000000000000000000000057
:10415000000000000000000000000000000000005F
:10416000000000000000000000000000000000004F
:10417000000000008080808080808080808080803F
:104180000000000404080800000000000000000017
:10419000000000000000000000000000000000001F
:1041A000000000000000000000000000000000000F
:1041B000000098D844642424FCF80000000F1F1865
:1041C000101010081F1F10180020E0F00000000061
:1041D000000000000000FFFF180804040CF8F000C5
:1041E00000001F0F18101010180F0300000000002F
:1041F000000000000000000000E0F8180404043C87
:104200003800000000030F0C10101010080600000A
:104210000000000000000020E0F0000000E0F81CBA
:1042200004040408FFFF000000030F18101010081A
:104230001F0F080000000000000000000000000048
:104240000000E0F8484444444C7870000000030F3C
:104250000C181010100804000000000080C060203E
:1042600020E0C00000040404FFFF04040404000074
:10427000000010101F1F10101000000000000000B0
:104280000000000000000000000070F88C04048CA6
:10429000F874040C007076CF8D8D8D89C87870000D
:1042A0000020E0F000000000000000000000FFFF20
:1042B00008040404FCF8000000101F1F1000001088
:1042C0001F1F1000000000000060600000000000E0
:1042D0000000040404FCFC000000000000001010BA
:1042E000101F1F10101000000000000000000060F0
:1042F0006000000000000000040404FCFC0000005A
:104300000000C0C08080C07F3F0000000020E0F0BF
:1043100000000000000000000000FFFF80C0F41C4F
:104320000404000000101F1F1100031F1C101000C8
:104330000000202020E0F00000000000000000004D
:1043400000FFFF000000000000001010101F1F10F1
:10435000101000000000000000000000000000003D
:1043600004FCFC0804FCFC0804FCFC00101F1F10EB
:10437000001F1F10001F1F100000000000000000A1
:10438000000000000004FCFC08080404FCF8000025
:1043900000101F1F100000101F1F10000000000061
:1043A000000000000000000000E0F0180C04040C05
:1043B00018F0E00000030F0C101010100C0F030099
:1043C0000000000000000000000000000004FCFCF1
:1043D000080404040CF8F0000080FFFF889010101F
:1043E0001C0F03000000000000000000000000009F
:1043F00000E0F81C04040408F8FC000000030F1897
:1044000010109088FFFF80000000000000000000F6
:1044100000000000040404FCFC100804040C0C0060
:104420001010101F1F1010100000000000000000EE
:10443000000000000000000000003078CCC484843C
:10444000840C1C0000001E1810101011190F06001B
:104450000000000000C00000000000000004040490
:10446000FFFF040404000000000000000F1F1010F4
:10447000100C000000000000000000000000000020
:104480000004FCFE00000004FCFE000000000F1F02
:10449000181010081F0F08000000000000000000A6
:1044A0000000000000040C3CFCC40000C43C0C04F0
:1044B00000000000010F1E0E0100000000000000BF
:1044C0000000000000000000043CFCC400E47CFC90
:1044D00084807C040000071F070000071F070000FE
:1044E0000000000000000000000000000004041CA8
:1044F0007CE4C0341C0404000010101C1601131FBF
:104500001C18100000000000000000000000000067
:1045100000040C3CFCC400C43C0404000000C08047
:10452000C1370E0100000000000000000000000084
:104530000000000000001C0404C4F47C1C04000003
:104540000000101C1F17111010180E0000000000B2
:10455000000000F80C04000000000000001028EF2C
:1045600000000000000000000000003F604000006C
:10457000000000000000FF0000000000000000003C
:104580000000FF0000000000000000000000FF002D
:10459000000000000000040CF80000000000000013
:1045A00000000000EF281000000000000000406044
:1045B0003F0000000000000000180602020408107E
:1045C0002020300800000000000000000000000073
:1045D0000000000000000000000000000040424415
:1045E0005840407F40405048C600000000404444CE
:1045F0004444444444444444FF0000000808E8297B
:104600002E28E80808C80C0BE80808000000FF097D
:1046100049897F00000F40807F0000001060028CFD
:104620000000FE9292929292FE00000004047E012D
:10463000407E42427E427E42427E40000000FC2498
:104640002424FC252624FC242424040040308F80CC
:10465000844C55252525554C80808000060909E6A7
:10466000F80C040202020202041E0000000000070F
:104670001F30204040404040201000000040424297
:1046800042C27E42C242424240400000804020106E
:104690000C0300003F404040407000009052341036
:1046A000FF10345280708F0808F80800829A566311
:1046B00022528E008040330C334080001010FF10D7
:1046C0009000FE929292F292929E800042827F012E
:1046D00080601F00FC44474444FC0000000000C010
:1046E00080808080808080FC84808080808080C00A
:1046F000C0000000000000FF7F404040404040FFFD
:1047000040404040404040FF7F000000000000006B
:10471000000000000000007F7000000000000000AA
:104720000000000000000000000000000000000089
:10473000000000FCF8000000000000000000000085
:104740000000000000000000FFFE02020202020260
:10475000020202FFFF020202020202020202FF0341
:1047600000000000000000001F1F040404040404F3
:10477000040404FFFF0404040404040404041F00EC
:104780000000000000000000000000000000000029
:104790000000007F3F00000000000000000000005B
:1047A0000000000000000000000000000000000009
:1047B00000000000000000000000000000000000F9
:1047C00000F8F8F0F0702000000000000000000089
:1047D00000000000000000000000000000000000D9
:1047E0000000000000000000000000008000000049
:1047F00000000000000000000000000000000000B9
:1048000000FFFFFFFF0000000000000000000000AC
:104810000000000000000000808000000000000098
:1048200000000000000000000000000000FFFFFE8C
:104830000606060606060606060606060606060618
:1048400006FFFFFFFF060606060606060606060624
:1048500006060606060606FFFFFFFF070200000029
:1048600000000000000000000000000000FFFFFF4B
:104870000000000000000000000000000000000038
:1048800000FFFFFFFF00000000000000000000002C
:1048900000000000000000FFFFFFFF00000000001C
:1048A00000000000000000000000000000FFFFFF0B
:1048B0001818181818181818181818181818181878
:1048C00018FFFFFFFF1818181818181818181818CC
:1048D00018181818181818FFFFFFFF000000000034
:1048E00000000000000000000000000002010100C4
:1048F00000000000000000000000000000000000B8
:1049000000FFFFFFFF0000000000000000000000AB
:104910000000000000000001010000000000000095
:104920000000000000000000000000000000000087
:104930000000000000000000000000000000000077
:1049400000FFFFFFFF00000000000000000000006B
:104950000000000000000000000000000000000057
:104960000000000000000000000000000000000047
:104970000000000000000000000000000000000037
:10498000001F1F0F0F0000000000000000000000CB
:104990000000000000000000000000000000000017
:1049A00000000000C4490008000000201C000000B6
:1049B00018230008E04900081C000020AC06000095
:1049C0002823000800000000000000000000000094
:1049D0000102030401020304060708090204060891
:0400000508000147A7
:00000001FF
